:020000040800F2
:10000000B804002045010008314E0008F908000836
:100010002D4E0008DF0300081957000800000000FB
:10002000000000000000000000000000F54F000884
:10003000A905000800000000BD4E0008DD500008C2
:100040005F0100085F0100085F0100085F01000810
:100050005F0100085F0100085F0100085F01000800
:100060005F0100085F0100085F0100085F010008F0
:100070005F0100085F0100085F0100085F010008E0
:100080005F0100085F0100085F0100085F010008D0
:100090005F0100085F0100085F0100085F010008C0
:1000A0005F0100085F0100085F0100085F010008B0
:1000B0005F010008415100085F0100085F0100086E
:1000C0005F0100085F0100085F0100085F01000890
:1000D0005F0100080154000861540008BD54000885
:1000E0005F0100085F0100085F0100085F01000870
:1000F0005F0100085F0100085F0100085F01000860
:100100005F0100085F0100085F0100085F0100084F
:100110005F0100085F0100085F0100085F0100083F
:100120005F0100085F0100085F0100085F0100082F
:10013000DFF80CD000F032F900480047A95F000852
:10014000B80400200648804706480047FEE7FEE75F
:10015000FEE7FEE7FEE7FEE7FEE7FEE7FEE7FEE777
:10016000E150000831010008D2B201E000F8012B93
:10017000491EFBD270470022F6E710B513460A4627
:1001800004461946FFF7F0FF204610BD2DE9FE4F4B
:1001900081EA030404F0004421F0004100944FF090
:1001A000000B23F0004350EA010402D052EA03049A
:1001B00004D10020014603B0BDE8F08FC3F30A5418
:1001C000C1F30A552C44A4F2F3340194A0FB025469
:1001D000C1F3130141F48011C3F3130343F48013FB
:1001E00001FB024400FB034E840A970A44EA81544F
:1001F00047EA8357A4FB076802958D0A05FB07852C
:100200004FEA932C04FB0C542705029D4FEA065835
:1002100047EA1637B5EB08056EEB070C870E920E12
:1002200047EA811742EA8312A7FB0201B6EB0B01F2
:1002300064EB00042B0D43EA0C335E1844EB1C50B6
:10024000DA465146E7FB0201C5F313044FEA0B33CC
:1002500043EA14534FEA0432019C43EA0603A4F133
:100260000C040294009CCDE900B400F044F8A2E72D
:100270000EB540F2334102910021CDE900110A464A
:100280000B4600F038F803B000BDC1F30A5210B5B8
:10029000C1F3130140F2FF3341F480119A4201DAB5
:1002A000002010BD40F233439A42A2F2334203DCF5
:1002B000524200F003F810BD904010BD202A04DB2C
:1002C000203A21FA02F00021704721FA02F3D040CF
:1002D000C2F12002914008431946704710B5002B27
:1002E00008DA401C41F1000192185B411A4301D128
:1002F00020F0010010BD2DE9F04D92469B4611B152
:10030000B1FA81F202E0B0FA80F22032904600F0B9
:1003100057F804460F4640EA0A0041EA0B015346EB
:100320005A46084303D120463946BDE8F08D1146B0
:1003300053EA010015D0C8F140025046FFF7BEFF56
:1003400005460E4650465946424600F039F80843E5
:1003500001D0012000E00020054346EAE0762C436E
:1003600037430A984FEA4453A0EB08004FEAD424DD
:100370000A304FF0000244EA47544FEAD72502D52D
:1003800000200146D1E7010510196941DDE9084562
:1003900000196941BDE8F04DA0E70000064C074D8B
:1003A00006E0E06840F0010394E807009847103445
:1003B000AC42F6D3FFF7C0FE04200608242006084E
:1003C000202A04DB203A00FA02F100207047914015
:1003D000C2F1200320FA03F319439040704700BF95
:1003E000FEE7000010B5002400F024F804E0601CD3
:1003F000C4B2012005F0E7FA0D48006808B1642C8A
:10040000F5DB642C01DB012010BD002404E0601C3E
:10041000C4B2012005F0D7FA0548006808B9642C79
:10042000F5DB642C01DB0120EEE70020ECE70000A7
:100430002401224208B54FF40070ADF800004820B6
:100440008DF803006946024800F04DF908BD000030
:100450000010014008B54FF40070ADF80000102006
:100460008DF8030003208DF802006946014800F072
:100470003AF908BD0010014008B50121102004F030
:100480003FFD4FF40070ADF8000010208DF8030020
:1004900003208DF802006946064800F024F94FF465
:1004A0000071044800F0AAF900F068F8FFF79AFF1D
:1004B00008BD00000010014010B5002404E0601CDD
:1004C000C4B2012005F07FFA0D48006808B1642C21
:1004D000F5DB002404E0601CC4B2012005F073FACF
:1004E0000748006808B9642CF5DB282005F06BFA92
:1004F0000348006808B1012010BD0020FCE700009F
:100500002401224270B50024002506E06006040E96
:10051000FFF7D2FF0443681CC5B2082DF6DB204666
:1005200070BD7CB505460E4600F028F8FFF75AFF6F
:10053000F8B9002405E0FFF7E5FF0DF80400601CA2
:10054000C4B2052CF7DB9DF800009DF801100844AB
:100550009DF8021008449DF8031008449DF804100B
:10056000884208D19DF8000030709DF80200287084
:1005700001E001207CBD0020FCE7000010B5FFF782
:1005800069FF0020064908604FF0140005F000FAEA
:1005900001200449C1F8A4011E2005F014FA10BD81
:1005A000A4012242000022427047000051B14FF0E6
:1005B000204252F8202042F001024FF0204343F83D
:1005C000202009E04FF0204252F82020034B1A402F
:1005D0004FF0204343F8202070470000FEFF0F003B
:1005E000D0E901121143C268114302691143426903
:1005F000114382691143C2691143026A1143426A7D
:100600001143826A1143C26A1143026B11434FF0D6
:100610002043026843F822108168082908D11A464D
:10062000016852F8211041F04001026843F822109D
:10063000416B0968426B526841EA0211426B926851
:1006400041EA0221426B928941EA0241426B128ADD
:1006500041EA0251426B127D41EA0261426B9269AA
:1006600011430268521C4FF0204343F82210C16A24
:10067000B1F5804F1AD1816B0968826B526841EAEB
:100680000211826B926841EA0221826B128A41EA6E
:100690000251826B127D41EA0261826B92691143C1
:1006A000026803EB8202C2F8041108E06FF07041A7
:1006B0004FF02043026803EB8202C2F80411704736
:1006C00010B502460020521C002305E014780444B3
:1006D000E0B2521C5C1CE3B28C1E9C42F6DCC443AC
:1006E000641CE0B210BD2DE9F04102460025002651
:1006F000002000230024002791F803C00CF00F0510
:1007000091F803C01CF0100F03D091F802C04CEA1E
:10071000050591F800C0BCF1000F31D0146800202D
:100720002BE04FF0010C0CFA00F3B1F800C00CEA1A
:1007300003069E4220D183004FF00F0C0CFA03F702
:10074000BC4305FA03FC4CEA040491F803C0BCF175
:10075000280F06D14FF0010C0CFA00FCC2F814C0AF
:100760000AE091F803C0BCF1480F05D14FF0010C2D
:100770000CFA00FCC2F810C0401C0828D1D3146049
:10078000B1F800C0BCF1FF0F34DD546800202EE04A
:1007900000F1080C4FF0010808FA0CF3B1F800C0A2
:1007A0000CEA03069E4221D183004FF00F0C0CFA95
:1007B00003F7BC4305FA03FC4CEA040491F803C0B8
:1007C000BCF1280F05D100F1080C08FA0CF8C2F8AA
:1007D000148091F803C0BCF1480F07D100F1080C58
:1007E0004FF0010808FA0CF8C2F81080401C0828E5
:1007F000CED35460BDE8F08141617047016170471C
:100800002DE9FF4F82B0834691469A460024002589
:100810000020019000905F46DDF80C80002661E02A
:10082000012000EB460019F80000A13819F8161055
:10083000A1395E2202FB010080B2009000244AE050
:1008400000251EE00098400100EB44002949085CA7
:1008500001900198A84010F0800F08D008EB040226
:1008600091B27A1990B20F9A00F0C8F907E008EB3C
:10087000040291B27A1990B2109A00F0BFF9681C84
:1008800085B2082DDEDB002521E00098400100EB59
:100890004400401C1749085C01900198A84010F0E2
:1008A000800F09D008EB040291B27A19083290B295
:1008B0000F9A00F0A3F908E008EB040291B27A194C
:1008C000083290B2109A00F099F9681C85B2082D90
:1008D000DBDB601C84B2102CB2DB07F1110087B2A5
:1008E000701C86B20AEBDA71B6EB610F98DB06B0CA
:1008F000BDE8F08F84CF010800BFFEE770B5044665
:100900000026174805884088454315488088A0F58B
:10091000D041043916D112488079012812D1002023
:100920000F4988712A2048812B20888100210846A0
:1009300003F0EEFF01200A4988712B2048812A200C
:10094000888103E00021084603F0E2FF04F03EFA4C
:10095000002602E003480480761CAE42FAD370BD44
:10096000A60000200008006C10B50446002C66D1DB
:100970006C498871F02008804FF4A07048800846C8
:100980008088A0F5134141390BD066488088A0F5D6
:10099000D041043905D063488088A0F5A6411039BC
:1009A0001AD12C205F4908812A2048812B20888178
:1009B00008468088A0F5D041043905D05948808880
:1009C000A0F5A641103906D14FF4A0705549088012
:1009D0004FF4F0704880A1E052488088A0F5AA4109
:1009E000103910D14FF430504E4908814FF428503F
:1009F00048814FF42C5088814FF4F07008804FF4F8
:100A0000487048808AE047488088A0F5C85163391B
:100A10000DD12C20434908812B2048812A20888130
:100A20004FF4F07008804FF44870488076E0222040
:100A30003C49088120204881212088816EE00120E6
:100A4000384988714FF4A0700880F020488008462B
:100A50008088A0F51341413905D032488088A0F53F
:100A6000A641103907D12C202E4908812A2048811F
:100A70002B2088813FE02B488088A0F5D0410439A5
:100A800007D12C20274908812B2048812A208881E2
:100A900031E024488088A0F5AA41103910D14FF4E4
:100AA0003050204908814FF4285048814FF42C5091
:100AB00088814FF4487008804FF4F07048801AE045
:100AC00018488088A0F5C85163390DD12C201549EC
:100AD00008812A2048812B2088814FF448700880A3
:100AE0004FF4F070488006E022200E490881212052
:100AF0004881202088810B488088A0F5D0410439A6
:100B000005D008488088A0F5A641103906D14FF4D9
:100B1000F070044908804FF4A0704880002003F072
:100B200081FD10BDA60000202DE9FF4F84B0814655
:100B30008A460020039002900698A0EB09050798CA
:100B4000A0EB0A06CDF80490CDF800A0002D01DD41
:100B5000012705E00DB9002702E04FF0FF376D4295
:100B6000002E02DD4FF0010806E016B94FF0000834
:100B700002E04FF0FF387642B54201DD2C4600E03E
:100B800034464FF0000B21E0009A91B2019A90B2E6
:100B900000F022F803982844039002983044029011
:100BA0000398A04205DD0398001B03900198384488
:100BB00001900298A04205DD0298001B0290009867
:100BC000404400900BF101001FFA80FB601C83453C
:100BD000DADD08B0BDE8F08F30B504460D46294691
:100BE000204603F095FE04F0F1F80248008802491F
:100BF000088030BD180000200008006C30B50346A6
:100C00000C4615465A488088A0F51341413905D055
:100C100057488088A0F5A641103914D15449488915
:100C200004F0CEF8181204F0C5F8D8B204F0C2F8F7
:100C30004F49888904F0C4F8201204F0BBF8E0B2F0
:100C400004F0B8F88CE04A488088A0F5AA41103931
:100C500020D14749488904F0B3F8181204F0AAF8E3
:100C600043494989491C88B204F0AAF8D8B204F073
:100C7000A1F83F49888904F0A3F8201204F09AF8FB
:100C80003B498989491C88B204F09AF8E0B204F023
:100C900091F865E036488088A0F5C851633928D1BD
:100CA0003348807920B932480088401EC01A83B288
:100CB0002F49488904F084F8181204F07BF8D8B260
:100CC00004F078F8181204F075F8D8B204F072F84D
:100CD0002749888904F074F8201204F06BF8E0B218
:100CE00004F068F8201204F065F8E0B204F062F84D
:100CF00036E01F488088A0F5D04104391DD11C483A
:100D00008079012804D11A480088401EC01A83B295
:100D10001749488904F054F8181204F04BF8D8B277
:100D200004F048F81249888904F04AF8201204F0C7
:100D300041F8E0B204F03EF812E00D488079012855
:100D400004D10B480088401EC01A83B20849488964
:100D5000194604F045F806498889214604F040F810
:100D60000348008903490880881C058030BD0000C5
:100D7000A6000020FE07006C2DE9FC4F05460E463C
:100D800017469846DDF82C9000200190274880886F
:100D9000A0F5D041043929D124488079012825D1F2
:100DA000AB46354621480088C01B401E86B24746E8
:100DB0001E480088A0EB0B00401E1FFA80F80020A0
:100DC0001A4988712A2048812B20888143463A4657
:100DD00031462846CDF80090FFF7CEFF0120134999
:100DE00088712B2048812A2088811CE0781B401CB8
:100DF00080B20190344614E02146284603F088FD75
:100E000003F0E4FF4FF0000A06E00948A0F8009064
:100E10000AF101001FFA80FA01988245F5DB601C97
:100E200084B24445E8DDBDE8FC8F0000A600002048
:100E30000008006C00B59FB00121080204F040F8E2
:100E400001214FF4B47004F05BF80320ADF8780092
:100E500010208DF87B0003208DF87A001EA9FE4833
:100E6000FFF741FC4CF23370ADF8780018208DF894
:100E70007B0003208DF87A001EA9F848FFF733FCA9
:100E80004FF68070ADF8780018208DF87B000320B5
:100E90008DF87A001EA9F248FFF725FC41F2010007
:100EA000ADF8780018208DF87B0003208DF87A00CB
:100EB0001EA9EC48FFF717FC0221E748FFF79EFC4C
:100EC00001200890002009900F200A9000200B902C
:100ED0000C900D900E900190029003200390002042
:100EE000049005900690079006200F900020109027
:100EF00011901020129000201390159014901690CD
:100F000017904FF480501890002019904FF48040B3
:100F10001A9000201B9008A81C9001A81D900FA8F3
:100F2000FFF75EFB01210620FFF740FB322004F0B3
:100F30002FFD002003F040FBCB49888008468088C5
:100F4000FF280ADB08468088A0F57F41FF3904D0DE
:100F5000C5488088B0F5134F7ED1D32003F030FF11
:100F600003F020FBC049888003F01CFBBE49888049
:100F700003F018FBBC498880084680884FF6FF7153
:100F800001EA0020B849888003F00CFBB649898843
:100F90000843B549888008468088A0F51341413947
:100FA0005AD0BF2003F00CFF03F0FCFAAE49888052
:100FB00003F0F8FAAC49888003F0F4FAAA49888073
:100FC00003F0F0FAA8498880084680884FF6FF7140
:100FD00001EA0020A449888003F0E4FAA249898844
:100FE0000843A149888008468088A0F5D04104398B
:100FF0007AD0D42003F0E4FE03F0D4FA9A49888032
:1010000003F0D0FA9849888003F0CCFA964988809A
:10101000084680884FF6FF7101EA002092498880D7
:1010200003F0C0FA9049898808438F4988800846B0
:101030008088A0F5A641103956D04FF45A4003F0ED
:10104000BFFE03F0AFFA884988804FF45B4003F09D
:10105000B7FE03F0A7FA00E046E08349888008461F
:1010600080884FF6FF7101EA00207F4988804FF4A5
:101070005C4003F0A5FE03F095FA7B49898808439C
:101080007949888008468088B0F5004F02D145F242
:101090001050888074488088A0F5AA41103923D068
:1010A000A12003F08DFE03F07DFA6F49888003F0E4
:1010B00079FA6D498880084680884FF6FF7101EA09
:1010C00000206949888003F06DFA674989880843E0
:1010D0006549888008468088A0F5AE41613903D112
:1010E00041F66310604988805F488088A0F513410D
:1010F00041397CD1CF2003F063FE002003F05AFE7B
:10110000C12003F057FE302003F054FEED2003F021
:1011100057FE642003F04EFE032003F04BFE122026
:1011200003F048FE812003F045FEE82003F048FE6E
:10113000852003F03FFE102003F03CFE7A2003F0F0
:1011400039FECB2003F03CFE392003F033FE2C2087
:1011500003F030FE002003F02DFE342003F02AFEC1
:10116000022003F027FEF72003F02AFE202003F0E0
:1011700021FEEA2003F024FE002003F01BFE0020E5
:1011800003F018FEC02003F01BFE1B2003F012FE2C
:10119000C12003F015FE012003F00CFEC52003F072
:1011A0000FFE302003F006FE302003F003FEC720C0
:1011B00003F006FEB72003F0FDFD362003F000FE2D
:1011C000482003F0F7FD3A2003F0FAFD552003F024
:1011D000F1FDB12003F0F4FD002003F0EBFD1A2037
:1011E00003F0E8FDB62003F0EBFD0A2000E0A4E0E8
:1011F00003F0E0FDA22003F0DDFDF22003F0E0FDAE
:10120000002003F0D7FD262003F0DAFD012003F0D3
:10121000D1FDE02003F0D4FD0F2003F0CBFD2A2008
:1012200003F0C8FD282003F0C5FD082003F0C2FD2F
:101230000E2003F0BFFD082003F0BCFD542003F096
:10124000B9FDA92003F0B6FD432003F0B3FD0A2049
:1012500003F0B0FD0F2009E0000C01400014014034
:101260000018014000200140A600002003F0A2FD6C
:10127000002003F09FFD002003F09CFD002003F000
:1012800099FD002003F096FDE12003F099FD002078
:1012900003F090FD152003F08DFD172003F08AFD6B
:1012A000072003F087FD112003F084FD062003F0E2
:1012B00081FD2B2003F07EFD562003F07BFD3C20BA
:1012C00003F078FD052003F075FD102003F072FD9A
:1012D0000F2003F06FFD3F2003F06CFD3F2003F073
:1012E00069FD0F2003F066FD2B2003F069FD00204F
:1012F00003F060FD002003F05DFD012003F05AFDC6
:101300003F2003F057FD2A2003F05AFD002003F090
:1013100051FD002003F04EFD002003F04BFDEF20B7
:1013200003F048FD112003F04BFD782004F030FB62
:10133000292003F045FD03F019B9FE488088A0F587
:10134000D04104397ED1112003F03AFD142004F07D
:101350001FFBD02003F034FD072003F02BFD4220BB
:1013600003F028FD1D2003F025FDD12003F028FD0A
:10137000002003F01FFD1A2003F01CFD092003F0DC
:1013800019FDD22003F01CFD012003F013FD2220E3
:1013900003F010FDC02003F013FD102003F00AFD40
:1013A0003B2003F007FD002003F004FD022003F0C2
:1013B00001FD112003F0FEFCC52003F001FD032018
:1013C00003F0F8FCC82003F0FBFC002003F0F2FC63
:1013D000252003F0EFFC212003F0ECFC052003F0B6
:1013E000E9FC002003F0E6FC0A2003F0E3FC6520A2
:1013F00003F0E0FC252003F0DDFC772003F0DAFCAD
:10140000502003F0D7FC0F2003F0D4FC002003F0A1
:10141000D1FCF82003F0D4FC012003F0CBFCFE202B
:1014200003F0CEFC002003F0C5FC022003F0C2FC58
:10143000202003F0C5FC362003F0C2FC082003F096
:10144000B9FC00E02AE03A2003F0BAFC552003F092
:10145000B1FC2B2003F0B4FC002003F0ABFC002017
:1014600003F0A8FC012003F0A5FC3F2003F0A2FC40
:101470002A2003F0A5FC002003F09CFC002003F0D0
:1014800099FC012003F096FCDF2003F093FC782008
:1014900004F07EFA292003F093FC4CE7A5488088ED
:1014A000A0F5A641103940F07C87ED2003F088FCC0
:1014B000012003F07FFCFE2003F07CFCEE2003F013
:1014C0007FFCDE2003F076FC212003F073FCF1208A
:1014D00003F076FC012003F06DFCDF2003F070FCCC
:1014E000102003F067FCC42003F06AFC8F2003F097
:1014F00061FCC62003F064FC002003F05BFCE220EA
:1015000003F058FCE22003F055FCE22003F052FC0B
:10151000BF2003F055FCAA2003F04CFCB02003F0E0
:101520004FFC0D2003F046FC002003F043FC0D208F
:1015300003F040FC002003F03DFC112003F03AFCD6
:10154000002003F037FC192003F034FC002003F0E6
:1015500031FC212003F02EFC002003F02BFC2D2079
:1015600003F028FC002003F025FC3D2003F022FCC2
:10157000002003F01FFC5D2003F01CFC002003F0A2
:1015800019FC5D2003F016FC002003F013FCB120D1
:1015900003F016FC802003F00DFC002003F00AFC91
:1015A0008B2003F007FC002003F004FC962003F0DE
:1015B00001FC002003F0FEFBB22003F001FC002040
:1015C00003F0F8FB002003F0F5FB022003F0F2FB30
:1015D000002003F0EFFB032003F0ECFB002003F0FE
:1015E000E9FBB32003F0ECFB002003F0E3FB002059
:1015F00003F0E0FB002003F0DDFB002003F0DAFB4A
:10160000002003F0D7FB002003F0D4FB002003F000
:10161000D1FB002003F0CEFB002003F0CBFB002029
:1016200003F0C8FB002003F0C5FB002003F0C2FB61
:10163000002003F0BFFB002003F0BCFB002003F000
:10164000B9FB002003F0B6FB002003F0B3FB002041
:1016500003F0B0FB002003F0ADFB002003F0AAFB79
:10166000002003F0A7FB002003F0A4FB002003F000
:10167000A1FB002003F09EFBB42003F0A1FB8B2014
:1016800003F098FB002003F095FB962003F092FBFB
:10169000002003F08FFBA12003F08CFB002003F05F
:1016A00089FBB52003F08CFB022003F083FB0020B4
:1016B00003F080FB032003F07DFB002003F07AFBA6
:1016C000042003F077FB002003F074FBB62003F046
:1016D00077FB002003F06EFB002003F06BFBB720CC
:1016E00003F06EFB002003F065FB002003F062FBBB
:1016F0003F2003F05FFB002003F05CFB5E2003F063
:1017000059FB002003F056FB642003F053FB00203C
:1017100003F050FB8C2003F04DFB002003F04AFB4C
:10172000AC2003F047FB002003F044FBDC2003F077
:1017300041FB01E0A6000020002003F03BFB7020ED
:1017400003F038FB002003F035FB902003F032FB60
:10175000002003F02FFBEB2003F02CFB002003F014
:1017600029FBDC2003F026FB002003F023FBB8203C
:1017700003F026FB002003F01DFB002003F01AFB02
:10178000002003F017FB002003F014FB002003F0FF
:1017900011FB002003F00EFB002003F00BFB0020E8
:1017A00003F008FBBA2003F00BFB242003F002FB3C
:1017B000002003F0FFFA002003F0FCFA002003F001
:1017C000F9FAC12003F0FCFA202003F0F3FA00201C
:1017D00003F0F0FA542003F0EDFA002003F0EAFAE7
:1017E000FF2003F0E7FA002003F0E4FAC22003F040
:1017F000E7FA0A2003F0DEFA002003F0DBFA042007
:1018000003F0D8FA002003F0D5FAC32003F0D8FA89
:101810003C2003F0CFFA002003F0CCFA3A2003F08A
:10182000C9FA002003F0C6FA392003F0C3FA0020F9
:1018300003F0C0FA372003F0BDFA002003F0BAFA33
:101840003C2003F0B7FA002003F0B4FA362003F08E
:10185000B1FA002003F0AEFA322003F0ABFA002018
:1018600003F0A8FA2F2003F0A5FA002003F0A2FA53
:101870002C2003F09FFA002003F09CFA292003F0AB
:1018800099FA002003F096FA262003F093FA00203C
:1018900003F090FA242003F08DFA002003F08AFA76
:1018A000242003F087FA002003F084FA232003F0B9
:1018B00081FA002003F07EFA3C2003F07BFA00203E
:1018C00003F078FA362003F075FA002003F072FA7C
:1018D000322003F06FFA002003F06CFA2F2003F09F
:1018E00069FA002003F066FA2C2003F063FA002066
:1018F00003F060FA292003F05DFA002003F05AFAA1
:10190000262003F057FA002003F054FA242003F0B5
:1019100051FA002003F04EFA242003F04BFA002085
:1019200003F048FA232003F045FA002003F042FABE
:10193000C42003F045FA622003F03CFA002003F0D3
:1019400039FA052003F036FA002003F033FA842038
:1019500003F030FA002003F02DFAF02003F02AFA09
:10196000002003F027FA182003F024FA002003F0E7
:1019700021FAA42003F01EFA002003F01BFA18201D
:1019800003F018FA002003F015FA502003F012FAC1
:10199000002003F00FFA0C2003F00CFA002003F0F3
:1019A00009FA172003F006FA002003F003FA952045
:1019B00003F000FA002003F0FDF9F32003F0FAF938
:1019C000002003F0F7F9E62003F0F4F9002003F01B
:1019D000F1F9C52003F0F4F9322003F0EBF900200F
:1019E00003F0E8F9442003F0E5F9002003F0E2F900
:1019F000652003F0DFF9002003F0DCF9762003F026
:101A0000D9F9002003F0D6F9882003F0D3F900209B
:101A100003F0D0F9C62003F0D3F9202003F0CAF96F
:101A2000002003F0C7F9172003F0C4F9002003F0E9
:101A3000C1F9012003F0BEF9002003F0BBF9C72073
:101A400003F0BEF9002003F0B5F9002003F0B2F96D
:101A5000002003F0AFF9002003F0ACF9C82003F038
:101A6000AFF9002003F0A6F9002003F0A3F900204D
:101A700003F0A0F9002003F09DF9C92003F0A0F9BC
:101A8000002003F097F9002003F094F9002003F000
:101A900091F9002003F08EF9002003F08BF900206B
:101AA00003F088F9002003F085F9002003F082F9A3
:101AB000002003F07FF9002003F07CF9002003F000
:101AC00079F9002003F076F9002003F073F9002083
:101AD00003F070F9002003F06DF9002003F06AF9BB
:101AE000E02003F06DF9162003F064F9002003F004
:101AF00061F91C2003F05EF9002003F05BF921205E
:101B000003F058F9002003F055F9362003F052F99C
:101B1000002003F04FF9462003F04CF9002003F0B9
:101B200049F9522003F046F9002003F043F96420FC
:101B300003F040F9002003F03DF97A2003F03AF970
:101B4000002003F037F98B2003F034F9002003F074
:101B500031F9992003F02EF9002003F02BF9A82089
:101B600003F028F9002003F025F9B92003F022F949
:101B7000002003F01FF9C42003F01CF9002003F03B
:101B800019F9CA2003F016F9002003F013F9D22046
:101B900003F010F9002003F00DF9D92003F00AF941
:101BA000002003F007F9E02003F004F9002003F01F
:101BB00001F9F32003F0FEF8002003F0FBF8E12028
:101BC00003F0FEF8162003F0F5F8002003F0F2F819
:101BD0001C2003F0EFF8002003F0ECF8222003F0C3
:101BE000E9F8002003F0E6F8362003F0E3F80020DF
:101BF00003F0E0F8452003F0DDF8002003F0DAF808
:101C0000522003F0D7F8002003F0D4F8642003F04A
:101C1000D1F8002003F0CEF87A2003F0CBF80020B2
:101C200003F0C8F88B2003F0C5F8002003F0C2F8D9
:101C3000992003F0BFF8002003F0BCF8A82003F0BF
:101C4000B9F8002003F0B6F8B92003F0B3F800208B
:101C500003F0B0F8C42003F0ADF8002003F0AAF8B8
:101C6000CA2003F0A7F8002003F0A4F8D22003F064
:101C7000A1F8002003F09EF8D82003F09BF8002084
:101C800003F098F8E02003F095F8002003F092F8B4
:101C9000F32003F08FF8002003F08CF8E22003F02B
:101CA0008FF8052003F086F8002003F083F80B205E
:101CB00003F080F8002003F07DF81B2003F07AF891
:101CC000002003F077F8342003F074F8002003F0CC
:101CD00071F8442003F06EF8002003F06BF84F20F9
:101CE00003F068F8002003F065F8612003F062F863
:101CF000002003F05FF8792003F05CF8002003F087
:101D000059F8882003F056F8002003F053F8972084
:101D100003F050F8002003F04DF8A62003F04AF835
:101D2000002003F047F8B72003F044F8002003F048
:101D300041F8C22003F03EF8002003F03BF8C72032
:101D400003F038F8002003F035F8D12003F032F822
:101D5000002003F02FF8D62003F02CF8002003F029
:101D600029F8DD2003F026F8002003F023F8F32003
:101D700003F020F8002003F01DF8E32003F020F822
:101D8000052003F017F8002003F014F80A2003F0F0
:101D900011F8002003F00EF81C2003F00BF80020CF
:101DA00003F008F8332003F005F8002003F002F8F0
:101DB000442002F0FFFF002002F0FCFF502002F060
:101DC000F9FF002002F0F6FF622002F0F3FF00208E
:101DD00002F0F0FF782002F0EDFF002002F0EAFFB1
:101DE000882002F0E7FF002002F0E4FF972002F0D5
:101DF000E1FF002002F0DEFFA62002F0DBFF002062
:101E000002F0D8FFB72002F0D5FF002002F0D2FF89
:101E1000C22002F0CFFF002002F0CCFFC72002F06A
:101E2000C9FF002002F0C6FFD12002F0C3FF00204E
:101E300002F0C0FFD52002F0BDFF002002F0BAFF83
:101E4000DD2002F0B7FF002002F0B4FFF32002F023
:101E5000B1FF002002F0AEFFE42002F0B1FF01204C
:101E600002F0A8FF002002F0A5FF012002F0A2FF6F
:101E7000002002F09FFF022002F09CFF002002F0F1
:101E800099FF2A2002F096FF002002F093FF3C20E9
:101E900002F090FF002002F08DFF4B2002F08AFF3D
:101EA000002002F087FF5D2002F084FF002002F096
:101EB00081FF742002F07EFF002002F07BFF84206F
:101EC00002F078FF002002F075FF932002F072FF0D
:101ED000002002F06FFFA22002F06CFF002002F051
:101EE00069FFB32002F066FF002002F063FFBE200E
:101EF00002F060FF002002F05DFFC42002F05AFFF4
:101F0000002002F057FFCD2002F054FF002002F025
:101F100051FFD32002F04EFF002002F04BFFDD20E6
:101F200002F048FF002002F045FFF32002F042FFDC
:101F3000002002F03FFFE52002F042FF002002F007
:101F400039FF002002F036FF002002F033FF0020AE
:101F500002F030FF022002F02DFF002002F02AFFE5
:101F6000292002F027FF002002F024FF3C2002F08D
:101F700021FF002002F01EFF4B2002F01BFF00207B
:101F800002F018FF5D2002F015FF002002F012FFA2
:101F9000742002F00FFF002002F00CFF842002F0FA
:101FA00009FF002002F006FF932002F003FF00204B
:101FB00002F000FFA22002F0FDFE002002F0FAFE77
:101FC000B32002F0F7FE002002F0F4FEBE2002F083
:101FD000F1FE002002F0EEFEC42002F0EBFE002035
:101FE00002F0E8FECD2002F0E5FE002002F0E2FE65
:101FF000D32002F0DFFE002002F0DCFEDC2002F045
:10200000D9FE002002F0D6FEF32002F0D3FE00201D
:1020100002F0D0FEE62002F0D3FE112002F0CAFE4C
:10202000002002F0C7FE342002F0C4FE002002F0BF
:10203000C1FE562002F0BEFE002002F0BBFE76205C
:1020400002F0B8FE002002F0B5FE772002F0B2FEEA
:10205000002002F0AFFE662002F0ACFE002002F08D
:10206000A9FE882002F0A6FE002002F0A3FE99201F
:1020700002F0A0FE002002F09DFEBB2002F09AFEBE
:10208000002002F097FE992002F094FE002002F05A
:1020900091FE662002F08EFE002002F08BFE55209D
:1020A00002F088FE002002F085FE552002F082FE3C
:1020B000002002F07FFE452002F07CFE002002F0AE
:1020C00079FE432002F076FE002002F073FE4420E9
:1020D00002F070FE002002F06DFEE72002F070FEBC
:1020E000322002F067FE002002F064FE552002F06C
:1020F00061FE002002F05EFE762002F05BFE002012
:1021000002F058FE662002F055FE002002F052FE5A
:10211000672002F04FFE002002F04CFE672002F024
:1021200049FE002002F046FE872002F043FE002018
:1021300002F040FE992002F03DFE002002F03AFE3F
:10214000BB2002F037FE002002F034FE992002F09E
:1021500031FE002002F02EFE772002F02BFE002040
:1021600002F028FE442002F025FE002002F022FEAC
:10217000562002F01FFE002002F01CFE232002F079
:1021800019FE002002F016FE332002F013FE00209C
:1021900002F010FE452002F00DFE002002F00AFEC3
:1021A000E82002F00DFE002002F004FE002002F004
:1021B00001FE992002F0FEFD002002F0FBFD8720C9
:1021C00002F0F8FD002002F0F5FD882002F0F2FD9B
:1021D000002002F0EFFD772002F0ECFD002002F07D
:1021E000E9FD662002F0E6FD002002F0E3FD882014
:1021F00002F0E0FD002002F0DDFDAA2002F0DAFD91
:10220000002002F0D7FDBB2002F0D4FD002002F038
:10221000D1FD992002F0CEFD002002F0CBFD66201A
:1022200002F0C8FD002002F0C5FD552002F0C2FDFD
:10223000002002F0BFFD552002F0BCFD002002F09E
:10224000B9FD442002F0B6FD002002F0B3FD4420A9
:1022500002F0B0FD002002F0ADFD552002F0AAFD15
:10226000002002F0A7FDE92002F0AAFDAA2002F05A
:10227000A1FD002002F09EFD002002F09BFD002049
:1022800002F098FD002002F09BFDAA2002F092FDD2
:10229000CF2002F095FD002002F08CFD002002F01E
:1022A00089FD002002F086FD002002F083FD002061
:1022B00002F080FD002002F07DFD002002F07AFD9A
:1022C000002002F077FD002002F074FD002002F0F3
:1022D00071FD002002F06EFD002002F06BFD002079
:1022E00002F068FD002002F065FD002002F062FDB2
:1022F000002002F05FFD002002F05CFDF02002F003
:102300005FFD002002F056FD502002F053FD00203A
:1023100002F050FD002002F04DFD002002F04AFDC9
:10232000F32002F04DFD002002F044FDF92002F000
:1023300047FD062002F03EFD102002F03BFD292063
:1023400002F038FD002002F035FD3A2002F038FDA1
:10235000552002F02FFD112002F032FD642003F021
:1023600017FB292002F02CFD352002F029FD00206A
:1023700002F020FD512002F023FDFF2002F01AFDA3
:10238000532002F01DFD2C2002F014FD552002F018
:1023900017FD822002F00EFD2C2002F011FD02F04C
:1023A000E5B8FE488088A0F5AA4110397ED15521B4
:1023B0004FF4704002F014FDAA214FF2010002F028
:1023C0000FFD52214FF2020002F00AFD08214FF2E8
:1023D000030002F005FD01214FF2040002F000FDB0
:1023E0000D214FF4304002F0FBFC0D214BF20100B7
:1023F00002F0F6FC0D214BF2020002F0F1FC342158
:102400004FF4364002F0ECFC34214BF2016002F054
:10241000E7FC34214BF2026002F0E2FC0D214FF4A4
:10242000314002F0DDFC0D214BF2011002F0D8FC2E
:102430000D214BF2021002F0D3FC34214FF437404F
:1024400002F0CEFC34214BF2017002F0C9FC3421C1
:102450004BF2027002F0C4FC00214FF4324002F053
:10246000BFFC00214BF2012002F0BAFC00214BF22C
:10247000022002F0B5FC24214FF4384002F0B0FCF9
:1024800024214BF6010002F0ABFC24214BF60200A4
:1024900002F0A6FC01214FF43F4002F0A1FC0F2105
:1024A0004FF4334002F09CFC0F2100E0FEE34BF2BE
:1024B000013002F095FC0F214BF2023002F090FC4B
:1024C00034214FF4394002F08BFC34214BF60110DB
:1024D00002F086FC34214BF6021002F081FC082148
:1024E0004FF4354002F07CFC08214BF2015002F021
:1024F00077FC08214BF2025002F072FC03214FF4EA
:10250000424002F06DFC24214FF43A4002F068FC96
:1025100024214BF6012002F063FC24214BF602201B
:1025200002F05EFC00214FF43C4002F059FC78219F
:102530004BF6014002F054FC00214BF6024002F041
:102540004FFC00214FF43D4002F04AFC78214BF64D
:10255000015002F045FC00214BF6025002F040FC15
:1025600000214FF43E4002F03BFC64214BF6016039
:1025700002F036FC00214FF4514002F031FC3321CF
:102580004DF2011002F02CFC00214DF2021002F07D
:1025900027FC34214DF2031002F022FC00214DF201
:1025A000041002F01DFC3A214DF2051002F018FC57
:1025B00000214DF2061002F013FC4A214DF20710E3
:1025C00002F00EFC00214DF2081002F009FC5C2123
:1025D0004DF2091002F004FC00214DF20A1002F045
:1025E000FFFB81214DF20B1002F0FAFB00214DF2AE
:1025F0000C1002F0F5FBA6214DF20D1002F0F0FBDD
:1026000000214DF20E1002F0EBFBE5214DF20F1010
:1026100002F0E6FB01214DF2101002F0E1FB132164
:102620004DF2111002F0DCFB01214DF2121002F00C
:10263000D7FB54214DF2131002F0D2FB01214DF2D1
:10264000141002F0CDFB82214DF2151002F0C8FBF0
:1026500001214DF2161002F0C3FBCA214DF21710F2
:1026600002F0BEFB02214DF2181002F0B9FB00216E
:102670004DF2191002F0B4FB02214DF21A1002F0D3
:10268000AFFB01214DF21B1002F0AAFB02214DF21B
:102690001C1002F0A5FB34214DF21D1002F0A0FB2E
:1026A00002214DF21E1002F09BFB67214DF21F101C
:1026B00002F096FB02214DF2201002F091FB8421E2
:1026C0004DF2211002F08CFB02214DF2221002F09B
:1026D00087FBA4214DF2231002F082FB02214DF270
:1026E000241002F07DFBB7214DF2251002F078FB9B
:1026F00002214DF2261002F073FBCF214DF227107C
:1027000002F06EFB02214DF2281002F069FBDE217F
:102710004DF2291002F064FB02214DF22A1002F062
:102720005FFBF2214DF22B1002F05AFB02214DF219
:102730002C1002F055FBFE214DF22D1002F050FB43
:1027400003214DF22E1002F04BFB10214DF22F1001
:1027500002F046FB03214DF2301002F041FB332121
:102760004DF2311002F03CFB03214DF2321002F029
:1027700037FB6D214DF2331002F032FB00214FF494
:10278000524002F02DFB33214DF2012002F028FBD4
:1027900000214DF2022002F023FB01E0A600002000
:1027A00034214DF2032002F01BFB00214DF20420E6
:1027B00002F016FB3A214DF2052002F011FB002138
:1027C0004DF2062002F00CFB4A214DF2072002F0E8
:1027D00007FB00214DF2082002F002FB5C214DF2C4
:1027E000092002F0FDFA00214DF20A2002F0F8FA69
:1027F00081214DF20B2002F0F3FA00214DF20C2062
:1028000002F0EEFAA6214DF20D2002F0E9FA0021C5
:102810004DF20E2002F0E4FAE5214DF20F2002F015
:10282000DFFA01214DF2102002F0DAFA13214DF205
:10283000112002F0D5FA01214DF2122002F0D0FA57
:1028400054214DF2132002F0CBFA01214DF2142055
:1028500002F0C6FA82214DF2152002F0C1FA0121E0
:102860004DF2162002F0BCFACA214DF2172002F0F8
:10287000B7FA02214DF2182002F0B2FA00214DF20F
:10288000192002F0ADFA02214DF21A2002F0A8FA46
:1028900001214DF21B2002F0A3FA02214DF21C206F
:1028A00002F09EFA34214DF21D2002F099FA022125
:1028B0004DF21E2002F094FA67214DF21F2002F023
:1028C0008FFA02214DF2202002F08AFA84214DF283
:1028D000212002F085FA02214DF2222002F080FA36
:1028E000A4214DF2232002F07BFA02214DF2242094
:1028F00002F076FAB7214DF2252002F071FA02219A
:102900004DF2262002F06CFACF214DF2272002F082
:1029100067FA02214DF2282002F062FADE214DF220
:10292000292002F05DFA02214DF22A2002F058FA25
:10293000F2214DF22B2002F053FA02214DF22C200D
:1029400002F04EFAFE214DF22D2002F049FA032149
:102950004DF22E2002F044FA10214DF22F2002F009
:102960003FFA03214DF2302002F03AFA33214DF2C2
:10297000312002F035FA03214DF2322002F030FA14
:102980006D214DF2332002F02BFA00214FF4534019
:1029900002F026FA33214DF2013002F021FA002133
:1029A0004DF2023002F01CFA34214DF2033002F0F5
:1029B00017FA00214DF2043002F012FA3A214DF2DA
:1029C000053002F00DFA00214DF2063002F008FA4F
:1029D0004A214DF2073002F003FA00214DF208308F
:1029E00002F0FEF95C214DF2093002F0F9F9002104
:1029F0004DF20A3002F0F4F981214DF20B3002F071
:102A0000EFF900214DF20C3002F0EAF9A6214DF267
:102A10000D3002F0E5F900214DF20E3002F0E0F940
:102A2000E5214DF20F3002F0DBF901214DF21030BB
:102A300002F0D6F913214DF2113002F0D1F9012143
:102A40004DF2123002F0CCF954214DF2133002F065
:102A5000C7F901214DF2143002F0C2F982214DF282
:102A6000153002F0BDF901214DF2163002F0B8F92F
:102A7000CA214DF2173002F0B3F902214DF218309D
:102A800002F0AEF900214DF2193002F0A9F902214D
:102A90004DF21A3002F0A4F901214DF21B3002F080
:102AA0009FF902214DF21C3002F09AF934214DF2C7
:102AB0001D3002F095F902214DF21E3002F090F91E
:102AC00067214DF21F3002F08BF902214DF22030C8
:102AD00002F086F984214DF2213002F081F90221C1
:102AE0004DF2223002F07CF9A4214DF2233002F0A5
:102AF00077F902214DF2243002F072F9B7214DF23C
:102B0000253002F06DF902214DF2263002F068F90D
:102B1000CF214DF2273002F063F902214DF2283027
:102B200002F05EF9DE214DF2293002F059F902215E
:102B30004DF22A3002F054F9F2214DF22B3002F01E
:102B40004FF902214DF22C3002F04AF9FE214DF2EC
:102B50002D3002F045F903214DF22E3002F040F9FC
:102B600010214DF22F3002F03BF903214DF23030AD
:102B700002F036F933214DF2313002F031F9032100
:102B80004DF2323002F02CF96D214DF2333002F06B
:102B900027F900214FF4544002F022F933214DF27D
:102BA000014002F01DF900214DF2024002F018F937
:102BB00034214DF2034002F013F900214DF204409C
:102BC00002F00EF93A214DF2054002F009F9002118
:102BD0004DF2064002F004F94A214DF2074002F09E
:102BE000FFF800214DF2084002F0FAF85C214DF2A6
:102BF000094002F0F5F800214DF20A4002F0F0F829
:102C000081214DF20B4002F0EBF800214DF20C4017
:102C100002F0E6F8A6214DF20D4002F0E1F80021A5
:102C20004DF20E4002F0DCF8E5214DF20F4002F0CB
:102C3000D7F801214DF2104002F0D2F813214DF2E5
:102C4000114002F0CDF801214DF2124002F0C8F817
:102C500054214DF2134002F0C3F801214DF214400B
:102C600002F0BEF882214DF2154002F0B9F80121C0
:102C70004DF2164002F0B4F8CA214DF2174002F0AE
:102C8000AFF802214DF2184002F0AAF800214DF2EF
:102C9000194002F0A5F802214DF21A4002F0A0F806
:102CA00001214DF21B4002F09BF800E004E30221F9
:102CB0004DF21C4002F094F834214DF21D4002F018
:102CC0008FF802214DF21E4002F08AF867214DF282
:102CD0001F4002F085F802214DF2204002F080F8FA
:102CE00084214DF2214002F07BF802214DF2224076
:102CF00002F076F8A4214DF2234002F071F802218F
:102D00004DF2244002F06CF8B7214DF2254002F05C
:102D100067F802214DF2264002F062F8CF214DF211
:102D2000274002F05DF802214DF2284002F058F8E9
:102D3000DE214DF2294002F053F802214DF22A40E3
:102D400002F04EF8F2214DF22B4002F049F8022138
:102D50004DF22C4002F044F8FE214DF22D4002F0DD
:102D60003FF803214DF22E4002F03AF810214DF2C7
:102D70002F4002F035F803214DF2304002F030F8D8
:102D800033214DF2314002F02BF803214DF2324055
:102D900002F026F86D214DF2334002F021F80021B7
:102DA0004FF4554002F01CF833214DF2015002F06F
:102DB00017F800214DF2025002F012F834214DF2C2
:102DC000035002F00DF800214DF2045002F008F813
:102DD0003A214DF2055002F003F800214DF2065061
:102DE00001F0FEFF4A214DF2075001F0F9FF0021EA
:102DF0004DF2085001F0F4FF5C214DF2095001F052
:102E0000EFFF00214DF20A5001F0EAFF81214DF25F
:102E10000B5001F0E5FF00214DF20C5001F0E0FFF6
:102E2000A6214DF20D5001F0DBFF00214DF20E50B6
:102E300001F0D6FFE5214DF20F5001F0D1FF012145
:102E40004DF2105001F0CCFF13214DF2115001F062
:102E5000C7FF01214DF2125001F0C2FF54214DF283
:102E6000135001F0BDFF01214DF2145001F0B8FFE5
:102E700082214DF2155001F0B3FF01214DF21650A1
:102E800001F0AEFFCA214DF2175001F0A9FF022157
:102E90004DF2185001F0A4FF00214DF2195001F03D
:102EA0009FFF02214DF21A5001F09AFF01214DF2CD
:102EB0001B5001F095FF02214DF21C5001F090FFD4
:102EC00034214DF21D5001F08BFF02214DF21E50B6
:102ED00001F086FF67214DF21F5001F081FF0221B2
:102EE0004DF2205001F07CFF84214DF2215001F081
:102EF00077FF02214DF2225001F072FFA4214DF222
:102F0000235001F06DFF02214DF2245001F068FFC3
:102F1000B7214DF2255001F063FF02214DF22650FA
:102F200001F05EFFCF214DF2275001F059FF022141
:102F30004DF2285001F054FFDE214DF2295001F0EE
:102F40004FFF02214DF22A5001F04AFFF2214DF2CB
:102F50002B5001F045FF02214DF22C5001F040FFB3
:102F6000FE214DF22D5001F03BFF03214DF22E507A
:102F700001F036FF10214DF22F5001F031FF0321F7
:102F80004DF2305001F02CFF33214DF2315001F061
:102F900027FF03214DF2325001F022FF6D214DF247
:102FA000335001F01DFF00214FF4564001F018FF8F
:102FB00033214DF2016001F013FF00214DF2026058
:102FC00001F00EFF34214DF2036001F009FF0021F2
:102FD0004DF2046001F004FF3A214DF2056001F06A
:102FE000FFFE00214DF2066001F0FAFE4A214DF28B
:102FF000076001F0F5FE00214DF2086001F0F0FEDF
:103000005C214DF2096001F0EBFE00214DF20A60F7
:1030100001F0E6FE81214DF20B6001F0E1FE00219E
:103020004DF20C6001F0DCFEA6214DF20D6001F0C6
:10303000D7FE00214DF20E6001F0D2FEE5214DF2E7
:103040000F6001F0CDFE01214DF2106001F0C8FECD
:1030500013214DF2116001F0C3FE01214DF2126007
:1030600001F0BEFE54214DF2136001F0B9FE0121C2
:103070004DF2146001F0B4FE82214DF2156001F0B2
:10308000AFFE01214DF2166001F0AAFECA214DF2F9
:10309000176001F0A5FE02214DF2186001F0A0FEBC
:1030A00000214DF2196001F09BFE02214DF21A60E1
:1030B00001F096FE01214DF21B6001F091FE02210C
:1030C0004DF21C6001F08CFE34214DF21D6001F0C8
:1030D00087FE02214DF21E6001F082FE67214DF253
:1030E0001F6001F07DFE02214DF2206001F078FEAC
:1030F00084214DF2216001F073FE02214DF2226025
:1031000001F06EFEA4214DF2236001F069FE022160
:103110004DF2246001F064FEB7214DF2256001F00C
:103120005FFE02214DF2266001F05AFECF214DF2E2
:10313000276001F055FE02214DF2286001F050FE9B
:10314000DE214DF2296001F04BFE02214DF22A6092
:1031500001F046FEF2214DF22B6001F041FE02210A
:103160004DF22C6001F03CFEFE214DF22D6001F08D
:1031700037FE03214DF22E6001F032FE10214DF298
:103180002F6001F02DFE03214DF2306001F028FE8A
:1031900033214DF2316001F023FE03214DF2326004
:1031A00001F01EFE6D214DF2336001F019FE552134
:1031B0004FF4704001F014FEAA214FF2010001F01B
:1031C0000FFE52214FF2020001F00AFE08214FF2D9
:1031D000030001F005FE00214FF2040001F000FEA3
:1031E000CC214FF4314001F0FBFD00214BF20110E6
:1031F00001F0F6FD05214FF4364001F0F1FD70219C
:103200004FF4374001F0ECFD70214BF2017001F0FA
:10321000E7FD01214FF4384001F0E2FD03214BF6B8
:10322000010001F0DDFD03214BF6020001F0D8FDA5
:1032300003214BF6030001F0D3FD02214FF43C4083
:1032400001F0CEFD00214BF6014001F0C9FD002147
:103250004BF6024001F0C4FDD0214FF4494001F08B
:10326000BFFD02214CF6011001F0BAFD50214CF6D1
:10327000021001F0B5FD50214CF6031001F0B0FD35
:1032800050214CF6041001F0ABFD00214FF45450D6
:1032900001F0A6FD55214FF4685001F0A1FD4FF457
:1032A000885001F08DFD782002F08DFB4FF4245002
:1032B00001F086FD01F05AB9FE488088A0F513415F
:1032C00025397DD147F6F001E52001F089FD4FF465
:1032D0008071012001F084FD4FF4E061022001F0D3
:1032E0007FFD41F23001032001F07AFD002104202E
:1032F00001F076FD40F20221082001F071FD00216D
:10330000092001F06DFD00210A2001F069FD002176
:103310000C2001F065FD00210D2001F061FD002170
:103320000F2001F05DFD0021102001F059FD072163
:10333000112001F055FD0021122001F051FD002166
:10334000132001F04DFD0021072001F049FD41F25D
:103350009061102001F044FD40F22721112001F07E
:103360003FFD9D21122001F03BFD4FF4C851132079
:1033700001F036FD2521292001F032FD0D212B2001
:1033800001F02EFD0721302001F02AFD40F203312B
:10339000312001F025FD0321322001F021FD40F212
:1033A0000621352001F01CFD0821362001F018FD12
:1033B00040F20641372001F013FD4FF4417100E067
:1033C00058E0382001F00CFD0721392001F008FDFC
:1033D00040F202613C2001F003FD08213D2001F094
:1033E000FFFC0021502001F0FBFCEF21512001F0F7
:1033F000F7FC0021522001F0F3FC40F23F11532072
:1034000001F0EEFC4FF42741602001F0E9FC0121BE
:10341000612001F0E5FC00216A2001F0E1FC0021BF
:10342000802001F0DDFC0021812001F0D9FC002189
:10343000822001F0D5FC0021832001F0D1FC002185
:10344000842001F0CDFC0021852001F0C9FC102171
:10345000902001F0C5FC4FF4C061922001F0C0FC47
:1034600040F23311072001F0BBFC2221002001F0C3
:10347000B7FC1FE78F488088A0F5134128397DD11C
:1034800041F28F01EC2001F0ABFC41F23421EF203E
:1034900001F0A6FC4FF48071012001F0A1FC4FF473
:1034A000E061022001F09CFC41F23001032001F0B8
:1034B00097FC0021042001F093FC40F20221082037
:1034C00001F08EFC0021092001F08AFC00210A2075
:1034D00001F086FC01210C2001F082FC00210D206E
:1034E00001F07EFC00210F2001F07AFC0021102069
:1034F00001F076FC0721112001F072FC002112205E
:1035000001F06EFC0021132001F06AFC012107206C
:1035100001F066FC322002F03BFA41F290411020AB
:1035200001F05EFC40F22721112001F059FC32200D
:1035300002F02EFA8A21122001F052FC322002F011
:1035400027FA4FF4D051132001F04AFC062129201C
:1035500001F046FC0D212B2001F042FC322002F04C
:1035600017FA0021202001F03BFC0021212001F06E
:1035700037FC322002F00CFA002100E075E0302028
:1035800001F02EFC40F20461312001F029FC40F2F0
:103590000531322001F024FC0021352001F020FC0F
:1035A00040F60941362001F01BFC4FF40171372031
:1035B00001F016FC40F20131382001F011FC40F21C
:1035C0000771392001F00CFC00213C2001F008FCBF
:1035D00040F60A213D2001F003FC322002F0D8F928
:1035E0000021502001F0FCFBEF21512001F0F8FBFD
:1035F0000021522001F0F4FB40F23F11532001F072
:10360000EFFB4FF42741602001F0EAFB012161202C
:1036100001F0E6FB00216A2001F0E2FB002180209E
:1036200001F0DEFB0021812001F0DAFB0021822085
:1036300001F0D6FB0021832001F0D2FB0021842081
:1036400001F0CEFB0021852001F0CAFB1021902063
:1036500001F0C6FB4FF4C061922001F0C1FB40F2C3
:103660003311072001F0BCFB24E612488088A0F546
:10367000134120397ED1084601F0B2FB4FF480712E
:10368000012001F0ADFB4FF4E061022001F0A8FB46
:1036900041F23001032001F0A3FB0021042001F0DE
:1036A0009FFB40F20221082001F09AFB0021092033
:1036B00002E00000A600002001F092FB00210A2099
:1036C00001F08EFB01210C2001F08AFB00210D206E
:1036D00001F086FB00210F2001F082FB322002F076
:1036E00057F940F20111072001F07AFB322002F075
:1036F0004FF94FF48651102001F072FB0721112081
:1037000001F06EFB4FF48871122001F069FB4FF459
:103710003061132001F064FB0021292001F060FBDF
:1037200044F210012B2001F05BFB0021502001F03E
:1037300057FBEF21512001F053FB0021522001F0F3
:103740004FFB40F23F11532001F04AFB4FF41C5154
:10375000602001F045FB0121612001F041FB0021C7
:103760006A2001F03DFB0021802001F039FB00219F
:10377000812000E030E001F033FB0021822001F0E5
:103780002FFB0021832001F02BFB0021842001F07E
:1037900027FB0021852001F023FB1021902001F060
:1037A0001FFB0021922001F01BFB0121932001F05F
:1037B00017FB4FF48871952001F012FB0021972030
:1037C00001F00EFB0021982001F00AFB40F273117A
:1037D000072001F005FB6DE5FE488088A0F5134148
:1037E00031397DD141F21401E72001F0F9FA4FF4AB
:1037F0008071012001F0F4FA4FF40071022001F011
:10380000EFFA41F23801032001F0EAFA40F2022116
:10381000082001F0E5FA0021092001F0E1FA002179
:103820000A2001F0DDFA00210C2001F0D9FA002174
:103830000D2001F0D5FA00210F2001F0D1FA00216E
:10384000102001F0CDFA0721112001F0C9FA002162
:10385000122001F0C5FA0021132001F0C1FAC8209E
:1038600002F096F841F29061102001F0B9FA40F2AE
:103870002721112001F0B4FA322002F089F80C213E
:10388000122001F0ADFA322002F082F84FF400610C
:10389000132001F0A5FA1121292001F0A1FA0B2132
:1038A0002B2001F09DFA322002F072F80021202036
:1038B00001F096FA40F23F11212001F091FA002127
:1038C000302001F08DFA4FF48371312001F088FA35
:1038D0000021322001F084FA4FF40171352000E01C
:1038E00064E001F07DFA41F20A61362001F078FAD5
:1038F00040F20771372001F073FA4FF483713820DA
:1039000001F06EFA40F20771392001F069FA40F2D5
:1039100002413C2001F064FA40F60F413D2001F0E5
:103920005FFA0021502001F05BFAEF21512001F0F5
:1039300057FA0021522001F053FA40F23F11532070
:1039400001F04EFA4FF41C51602001F049FA0121B8
:10395000612001F045FA00216A2001F041FA0021BE
:10396000802001F03DFA0021812001F039FA002188
:10397000822001F035FA0021832001F031FA002184
:10398000842001F02DFA0021852001F029FA102170
:10399000902001F025FA4FF4C061922001F020FA46
:1039A00040F23311072001F01BFA83E48948808834
:1039B000A0F5A84108397DD14FF48071012001F0B4
:1039C0000FFA4FF4E061022001F00AFA41F23001EF
:1039D000032001F005FA0021042001F001FA40F271
:1039E0000721082001F0FCF90021092001F0F8F975
:1039F00000210A2001F0F4F900210C2001F0F0F977
:103A000000210D2001F0ECF900210F2001F0E8F970
:103A1000142001F0BDFF41F2B061102001F0E0F987
:103A20000121112001F0DCF90121172001F0D8F962
:103A30004FF49C71122001F0D3F94FF40061132070
:103A400001F0CEF90921292001F0CAF909212A2023
:103A500001F0C6F90021A42001F0C2F90021502094
:103A600001F0BEF9EF21512001F0BAF900215220F6
:103A700001F0B6F940F23F11532001F0B1F94FF4D3
:103A80001C51602001F0ACF90121612001F0A8F97E
:103A900000216A2001F0A4F90021802001F0A0F9A2
:103AA0000021812001F09CF90021822001F098F989
:103AB000002100E024E0832001F092F9002184201D
:103AC00001F08EF90021852001F08AF91321902060
:103AD00001F086F90021922001F082F90321932060
:103AE00001F07EF94FF48871952001F079F940F2E8
:103AF0007311072001F074F9322001F049FFB8E496
:103B000034488088A0F5A851053965D1072001F017
:103B100067F9322001F03CFF4FF48E71122001F062
:103B20005FF90121A42001F05BF90F21082001F0C9
:103B300057F908210A2001F053F908210D2001F05E
:103B40004FF940F20771302001F04AF90721312086
:103B500001F046F940F20361322001F041F94FF4DF
:103B6000E061332001F03CF940F20221342001F001
:103B700037F90221352001F033F941F60F71362073
:103B800001F02EF940F20771372001F029F90021E8
:103B9000382001F025F90021392001F021F940F207
:103BA00007713A2001F01CF900213B2001F018F9BF
:103BB00007213C2001F014F900213D2001F010F90B
:103BC000322001F0E5FE0121072001F009F9012171
:103BD000172002E0A6000020AEE001F001F932203B
:103BE00001F0D6FE4FF4BD51102001F0F9F840F27B
:103BF0001721112001F0F4F84FF48F71122001F019
:103C0000EFF84FF47061132001F0EAF800212A2048
:103C100001F0E6F80A21292001F0E2F84FF49F7143
:103C2000122001F0DDF80021502001F0D9F8EF2139
:103C3000512001F0D5F80021522001F0D1F840F2D6
:103C40003F11532001F0CCF84FF41C51602001F0DB
:103C5000C7F80121612001F0C3F800216A2001F0BA
:103C6000BFF80021802001F0BBF80021812001F085
:103C7000B7F80021822001F0B3F80021832001F081
:103C8000AFF80021842001F0ABF80021852001F07D
:103C9000A7F81321902001F0A3F84FF4407192206F
:103CA00001F09EF80521932001F09AF8002195205B
:103CB00001F096F80021972001F092F80021982059
:103CC00001F08EF84FF48071012001F089F84FF473
:103CD000E061022001F084F841F23801032001F094
:103CE0007FF80021042001F07BF800210C2001F076
:103CF00077F800210F2001F073F80021202001F057
:103D00006FF80021212001F06BF82121072001F03C
:103D100067F8142001F03CFE6121072001F060F8F3
:103D2000142001F035FE40F27311072001F058F81D
:103D3000142001F02DFE97E4FE488088A0F535415F
:103D400005397DD1084601F04BF80021084601F005
:103D500047F80021084601F043F80021084601F029
:103D60003FF80121A42001F03BF8142001F010FEDF
:103D70004FF41C51602001F033F840F2022108207A
:103D800001F02EF84FF40571302001F029F843F2CC
:103D90001571312001F024F840F20461322001F065
:103DA0001FF840F61661332001F01AF842F2112193
:103DB000342001F015F84FF4A851352001F010F827
:103DC00048F20751362001F00BF841F20741372045
:103DD00001F006F841F20341382001F001F82021FA
:103DE000392000F0FDFF1A21902000F0F9FF00219A
:103DF000102000F0F5FF0721112000F0F1FF002155
:103E0000122000F0EDFF0021132000F0E9FF142044
:103E100001F0BEFD4FF4E661102000F0E1FF40F23A
:103E20003711112000F0DCFF142001F0B1FD4FF438
:103E3000DC71122000F0D4FF142001F0A9FD00E095
:103E400083E04FF47061132000F0CAFF80212A2024
:103E500000F0C6FF4821292000F0C2FF142001F025
:103E600097FD4FF48071012000F0BAFF4FF4E0613C
:103E7000022000F0B5FF41F23801032000F0B0FF4E
:103E800040F20221082000F0ABFF00210A2000F0E0
:103E9000A7FF00210C2000F0A3FF00210D2000F05F
:103EA0009FFF30210E2000F09BFF0021502000F0EA
:103EB00097FFEF21512000F093FF0021522000F0E6
:103EC0008FFF40F23F11532000F08AFF4FF41C5146
:103ED000602000F085FF0121612000F081FF0021BA
:103EE0006A2000F07DFF1121902000F079FF4FF44F
:103EF000C061922000F074FF40F20241932000F074
:103F00006FFF0221942000F06BFF142001F040FDB0
:103F10000121072000F064FF142001F039FD612128
:103F2000072000F05DFF40F27311072000F058FFFA
:103F30000021202000F054FF0021212000F050FF3C
:103F40002221002000F04CFF10E37A488088A0F581
:103F5000454105397DD1084600F042FF0021084661
:103F600000F03EFF142001F013FD0021084600F090
:103F700037FF0021084600F033FF0021084600F01B
:103F80002FFF0021084600F02BFF0121A42000F0A4
:103F900027FF142001F0FCFC4FF41C51602000F0BE
:103FA0001FFF40F60601082000F01AFF40F20371DF
:103FB000302000F015FF0121312000F011FF042115
:103FC000322000F00DFF4FF48171332000F008FF24
:103FD0004FF44071342000F003FF40F2031135200C
:103FE00000F0FEFE1F21362000F0FAFE40F20371C1
:103FF000372000F0F5FE0121382000F0F1FE042109
:10400000392000F0EDFE1521902000F0E9FE4FF47C
:104010008261102000F0E4FE40F24721112000F000
:10402000DFFE4FF4DE71122000F0DAFE4FF4606123
:10403000132000F0D5FE782001F0AAFC4FF4807127
:10404000012000F0CDFE4FF40071022000F0C8FE08
:1040500000E050E041F23001032000F0C1FE0821F1
:104060000A2000F0BDFE00210C2000F0B9FE202146
:104070000E2000F0B5FE00210F2000F0B1FE00215F
:10408000202000F0ADFE0021212000F0A9FE3D21FE
:104090002A2000F0A5FE142001F07AFC2D21292011
:1040A00000F09EFE0021502000F09AFE4DF2EF013C
:1040B000512000F095FE0021522000F091FE40F2C8
:1040C0003F11532000F08CFE0021612000F088FE9B
:1040D00000216A2000F084FE4FF44071922000F02D
:1040E0007FFE0521932000F07BFE4FF480710720B6
:1040F00000F076FE3AE20F488088A0F58A41313917
:104100007ED10121002000F06BFE0A2001F040FC6E
:1041100041F22861102000F063FE0E21122000F011
:104120005FFE40F63921132000F05AFE0A2001F00C
:104130002FFC01E0A60000204021112000F050FEDD
:104140005021152000F04CFE0A2001F021FC1E2118
:10415000122000F045FE0A2001F01AFC4FF4B15184
:10416000102000F03DFE42F63921132000F038FE09
:104170000A2001F00DFC4FF48071012000F030FEA8
:104180004FF44071022000F02BFE41F23801032071
:1041900000F026FE40F20221082000F021FE082156
:1041A0000A2000F01DFE0021302000F019FE40F230
:1041B0000241312000F014FE4FF48371322000F0F0
:1041C0000FFE40F20351332000F00AFE4FF48271DB
:1041D000342000F005FE40F20131352000F000FEF1
:1041E00040F20771362000F0FBFD40F20531372028
:1041F00000F0F6FD4FF40271382000F0F1FD00E010
:104200003EE040F60B71392000F0EAFD022141202A
:1042100000F0E6FD4FF41C51602000F0E1FD0121AB
:10422000612000F0DDFD4FF40471902000F0D8FD16
:104230004FF48571922000F0D3FD0421932000F00B
:10424000CFFD4FF48071A02000F0CAFD01210720AE
:1042500000F0C6FD2121072000F0C2FD2321072028
:1042600000F0BEFD3321072000F0BAFD40F233110B
:10427000072000F0B5FD0021A02000F0B1FD75E1A0
:10428000C0488088A0F58A4135397CD1302115207D
:1042900000F0A6FD10219A2000F0A2FD202111209F
:1042A00000F09EFD43F22841102000F099FD02210C
:1042B000122000F095FD41F23801132000F090FD2E
:1042C000282001F065FB1221084600F089FD282016
:1042D00001F05EFB43F22041102000F081FD43F22B
:1042E0003801132000F07CFD462001F051FB002135
:1042F000302000F075FD40F20241312000F070FDE9
:1043000040F20731322000F06BFD4FF44171332051
:1043100000F066FD0421342000F062FD40F201410E
:10432000352000F05DFD40F20771362000F058FDA9
:1043300040F20531372000F053FD4FF4C2613820C0
:1043400000F04EFD4FF4C261392000F049FD4FF4FA
:104350008071012000F044FD4FF44071022000F014
:104360003FFD41F23001032000F03AFD40F6080124
:10437000082000F035FD08210A2000F031FD4FF43F
:104380001C51602000E033E000F02AFD0121612093
:1043900000F026FD4FF49F71902000F021FD4FF4B6
:1043A0008071922000F01CFD4FF48071932000F08A
:1043B00017FD4FF44051A02000F012FD1021A32062
:1043C00000F00EFD0121072000F00AFD2121072049
:1043D00000F006FD2321072000F002FD3321072015
:1043E00000F0FEFC40F23311072000F0F9FCBDE0C4
:1043F00064488088A0F5C8516339F8D1E22000F004
:10440000DFFC1D2000F0D6FC022000F0D3FC0420CD
:1044100000F0D0FC642001F0D6FAE02000F0D0FCDF
:10442000012000F0C7FC0A2001F0B2FAE02000F001
:10443000C7FC032000F0BEFC0C2001F0A9FA01200B
:1044400000F0BEFC0A2001F0A3FAE62000F0B8FC60
:104450002F2000F0AFFCFF2000F0ACFCFF2000F0AC
:10446000A9FCB02000F0ACFC202000F0A3FC002050
:1044700000F0A0FC032000F09DFC40F21F3000F093
:1044800099FC012000F096FC40F2DF1000F092FC55
:10449000002000F08FFCB42000F092FC042000F01B
:1044A00089FC40F21F4000F085FC002000F082FCF7
:1044B0002E2000F07FFC002000F07CFC002000F0AB
:1044C00079FC002000F076FC002000F073FCB620A0
:1044D00000F076FC022000F06DFC4FF4037000F059
:1044E00069FC002000F066FC172000F063FC15203A
:1044F00000F060FC002000F05DFC002000F05AFCA1
:10450000F02000F05DFC032000F054FC292000F0B6
:1045100057FCD02000F054FC002000F04BFCBE20E3
:1045200000F04EFC052000F045FCFE2000F042FCAF
:10453000012000F03FFC002000F03CFC002000F0D7
:1045400039FC002000F036FCB82000F039FC0320D4
:1045500000F030FC012000F02DFCBA2000F030FC0F
:10456000012000F027FC642000F032F80020FCF766
:10457000FBF90120044908604FF6FF70FCF7BEF913
:104580001FB000BDA60000208081214210B5024668
:10459000012000E050430B00A1F10104E1B2F9D188
:1045A00010BD000008B5034800880090BDF8000069
:1045B00008BD00000008006C10B50446204600F05D
:1045C000FFFB052001F0FFF9FFF7ECFF10BD000035
:1045D0002DE9F0470446BE2000F0F2FB052000F074
:1045E000E9FB2046FBF744FE07464FF066320C4BD2
:1045F000FBF7CCFD0546FBF748FE1FFA80F948465D
:1046000000F0D8FB012000F0D5FBFF2000F0D2FB2A
:10461000002000F0CFFB002000F0CCFBBDE8F087CD
:1046200066660440F0B5054600240027B748807947
:1046300001280BD1B5488088A0F5D041043905D0B8
:10464000B2488088A0F5C851633908D1AF48807955
:10465000F0B9AE488088A0F5C851633918D1082D4B
:1046600015D2DFE805F00406080A0C0E1012062524
:104670000DE007250BE0042509E0052507E00125ED
:1046800005E0002503E0032501E0022500BF00BF8F
:104690009E488088A0F51341413917D09B488088F7
:1046A000A0F5D041043911D098488088A0F5A641E2
:1046B00010390BD095488088A0F5AA41103905D053
:1046C00092488088A0F5C85163397DD1082D1CD24D
:1046D000DFE805F00406090C0F12151800BF14E0FE
:1046E00044F0800411E044F040040EE044F0C004C3
:1046F0000BE044F0200408E044F0600405E044F0DE
:10470000A00402E044F0E00400BF00BF7F488088BE
:10471000A0F5AA41103902D14FF4585700E03627CE
:104720007A488088A0F5A64110390DD07748808856
:10473000A0F5AA41103907D074488088A0F5C85167
:10474000633901D044F0080470488088A0F5D04156
:10475000043901D144F002042146384600F040FB00
:104760006A488088A0F5C85163391DD014F0200F25
:104770000DD06648008865494988884214DA634844
:104780000688408861490880084646800CE05F48FA
:1047900000885E494988884206DD5C480688408872
:1047A0005A4908800846468058488088A0F5AA41A2
:1047B000103954D15549488900F002FB002000F01F
:1047C000F9FA5249498900E078E0491C88B200F0C2
:1047D000F7FA002000F0EEFA4C494989891C88B2AA
:1047E00000F0EEFA49490988491EC1F30F2000F094
:1047F000E1FA46494989C91C88B200F0E1FA434907
:104800000978491EC8B200F0D5FA4049888900F0FD
:10481000D7FA002000F0CEFA3C498989491C88B2B9
:1048200000F0CEFA002000F0C5FA38498989891CC9
:1048300088B200F0C5FA35494988491EC1F30F20F6
:1048400000F0B8FA31498989C91C88B200F0B8FA79
:104850002E498978491EC8B200F0ACFA55E02B49C0
:10486000488900F0ADFA002000F0A4FA002000F022
:10487000A1FA26490988491EC1F30F2000F09AFACF
:1048800022490978491EC8B200F094FA1F49888964
:1048900000F096FA002000F08DFA002000F08AFA6D
:1048A0001A494988491EC1F30F2000F083FA1749BD
:1048B0008978491EC8B200F07DFA26E0082D1CD286
:1048C000DFE805F004070A0D0F12151844F0300454
:1048D00013E044F0100410E044F020040DE000BFA9
:1048E0000BE044F0380408E044F0280405E044F00C
:1048F000180402E044F0080400BF00BF032744F49A
:1049000080542146384600F06BFAF0BDA600002026
:1049100010B503460C4667488088A0F5134141391D
:1049200005D064488088A0F5A641103914D16149AA
:10493000488900F045FA181200F03CFAD8B200F0AD
:1049400039FA5C49888900F03BFA201200F032FA0B
:10495000E0B200F02FFAABE056488088A0F5D041D5
:1049600004391DD153488079012804D15148008869
:10497000401EC01A83B24F49488900F021FA18122C
:1049800000F018FAD8B200F015FA4A49888900F008
:1049900017FA201200F00EFAE0B200F00BFA87E0EE
:1049A00044488088A0F5C851633947D1414880798F
:1049B000A8B940480088401EC01A83B23D494889C2
:1049C00000F0FEF9002000F0F5F9002000F0F2F907
:1049D000181200F0EFF9D8B200F0ECF916E0354902
:1049E000488900F0EDF9181200F0E4F9D8B200F0AF
:1049F000E1F930490988491EC1F30F2000F0DAF9C6
:104A00002C490978491EC8B200F0D4F9294988898F
:104A100000F0D6F9201200F0CDF9E0B200F0CAF9AA
:104A200024494988491EC1F30F2000F0C3F92149E8
:104A30008978491EC8B200F0BDF939E01D48808868
:104A4000A0F5AA41103920D11A49488900F0B8F9D7
:104A5000181200F0AFF917494989491C88B200F0D3
:104A6000AFF9D8B200F0A6F91249888900F0A8F988
:104A7000201200F09FF90F498989491C88B200F083
:104A80009FF9E0B200F096F912E00A488079012817
:104A900004D108480088401EC01A83B205494889DD
:104AA000194600F09DF903498889214600F098F9DC
:104AB00010BD0000A60000202DE9FF4F9B46009B83
:104AC000029CDDF80490DA4627488088A0F513415F
:104AD000413922D12A2000F073F9181200F06AF946
:104AE000D8B200F067F9201200F064F9E0B200F0EB
:104AF00061F92B2000F064F94FEA292000F05AF9FF
:104B000009F0FF0000F056F94FEA2A2000F052F9B0
:104B10000AF0FF0000F04EF924E013488088A0F569
:104B20000941893909D14425442643EA042083B246
:104B30001C4645274FF0460804E0502551265227D1
:104B40004FF053081946284600F04AF921463046EE
:104B500000F046F94946384600F042F951464046D1
:104B600000F03EF9BDE8FF8FA60000202DE9F84FC8
:104B700080460E4617461C46B3462046E31704EB14
:104B80005373DB1021464FEAE47C04EB5C7C4FEA74
:104B9000EC0CB4EBCC0C02D04FF0010C01E04FF068
:104BA000000C6344224604EBD27C4FEA6C0C03FBFE
:104BB0000CF3DBB20093A7F12000C7B2002556E04A
:104BC0000C2C07D107EB47002B4901EB800010F8B4
:104BD000059013E0102C05D1284800EB071010F8C1
:104BE00005900BE0182C07D107EBC700244901EB17
:104BF000800010F8059001E0BDE8F88F4FF0000A42
:104C00002FE019F0800F06D01E480288314640463A
:104C1000FBF7F4FF07E00A9828B91B4802883146E1
:104C20004046FBF7EBFF4FEA49604FEA1069701C02
:104C300086B216484088B04200DCDDE7A6EB0B00E8
:104C4000A0420AD15E4608F101001FFA80F80F4821
:104C50000088404500DCCFE706E00AF1010000F0E3
:104C6000FF0ABAF1080FCCDB00BF681CC5B2009880
:104C70008542A5DB00BFBFE7C86A00083C6F00089B
:104C80002C750008180000201A000020A600002043
:104C90002DE9F84704460D4690469946DDE9096737
:104CA00004F0FF0A08EB04001FFA80F809EB050086
:104CB0001FFA80F916E0444502DB5446A81985B274
:104CC0004D4500DB14E0002000903A783346294639
:104CD0002046FFF74BFF304606EBD07104EB610135
:104CE0008CB27F1C38787E2802DC38782028E2DA03
:104CF00000BFBDE8F8872DE9FF4F82B00646924617
:104D00001F46DDE90F480020019000254DE0781B8B
:104D1000401EC1B20A20FFF739FCBAFBF0F00A21AD
:104D2000B0FBF1F201FB1209019850BB781EA842BA
:104D300027DDB9F1000F22D118F0800F0FD008F055
:104D40000100A34604EBDB71491001FB05610090F3
:104D500088B2234630220399FFF708FF0EE008F0DF
:104D60000100A34604EBDB71491001FB05610090D3
:104D700088B2234620220399FFF7F8FE13E00120B2
:104D8000019008F00100A34604EBDB71491001FB20
:104D90000561009088B209F13001CAB22346039937
:104DA000FFF7E4FE00BF681CC5B2BD42AFDB06B032
:104DB000BDE8F08F01490880704700000008006CD2
:104DC0000149088070470000FE07006C0248008916
:104DD0000249088070470000A6000020FE07006C12
:104DE000024A1080921C118070470000FE07006C80
:104DF00008B50121402000F083F86020ADF80000E4
:104E000010208DF8030003208DF802006946064843
:104E1000FBF769FC20210448FBF7F0FC4021024825
:104E2000FBF7ECFC08BD00000018014000BFFEE7E6
:104E30007047000070B5002100230F22C4780CB326
:104E4000164C246804F4E064C4F5E064210AC1F15E
:104E50000403CA40447804FA03F1847814402143DF
:104E600009010F4C0678A155047804F01F050124B0
:104E7000AC4005786D114FF0E02606EB8505C5F8CE
:104E8000004109E0047804F01F050124AC40054D01
:104E90000678761145F8264070BD00000CED00E064
:104EA00000E400E080E100E002490143024A1160B1
:104EB000704700000000FA050CED00E070470000AC
:104EC00029B1064A52690243044B5A6104E0034A7D
:104ED00052698243014B5A61704700000010024042
:104EE00029B1064AD2690243044BDA6104E0034A5D
:104EF000D2698243014BDA61704700000010024022
:104F000029B1064A92690243044B9A6104E0034ABC
:104F100092698243014B9A61704700000010024081
:104F200030B500210022002400232D4D6D6805F0CE
:104F30000C0121B1042905D0082923D105E0294D10
:104F4000056022E0274D05601FE0254D6D6805F4E2
:104F50007012234D6D6805F48034022505EB9242F2
:104F60001CB9214D554305600BE01D4D6D6815F4CE
:104F7000003F03D01C4D5543056002E0194D5543D9
:104F8000056002E0174D056000BF00BF144D6D685D
:104F900005F0F0010909154D6B5C0568DD404560C1
:104FA0000F4D6D6805F4E061090A104D6B5C4568B2
:104FB000DD4085600A4D6D6805F46051C90A0B4DEE
:104FC0006B5C4568DD40C560054D6D6805F440418A
:104FD000890B074D6B5CC568B5FBF3F5056130BD0A
:104FE0000010024000127A0000093D002500002058
:104FF00035000020704710B500F002F810BD000029
:105000000CB50020019000903248006840F48030D8
:105010003049086000BF2F48006800F4003000905D
:105020000198401C0190009818B90198B0F5A06F44
:10503000F1D12848006810F4003F02D00120009010
:1050400001E0002000900098012842D12248006829
:1050500040F01000204908600846006820F0030076
:1050600008600846006840F002000860194840687F
:10507000184948600846406848600846406840F45F
:10508000806048600846406820F47C10486008460C
:10509000406840F4E81048600846006840F08070BE
:1050A000086000BF0B48006810F0007FFAD0094884
:1050B000406820F00300074948600846406840F017
:1050C0000200486000BF0348406800F00C00082858
:1050D000F9D10CBD001002400020024070470000D2
:1050E00010B51348006840F00100114908600846F7
:1050F0004068104908400E494860084600680E495B
:1051000008400B4908600846006820F480200860C9
:105110000846406820F4FE0048604FF41F00886095
:10512000FFF769FF4FF000600449086010BD000000
:10513000001002400000FFF8FFFFF6FE08ED00E05F
:105140001CB50121684800F0EEF801287ED100214D
:10515000664800F0ECF90021654800F0E8F901200C
:105160006449087064480078401C634908706348CB
:105170000078401C61490870084600783C2806D138
:10518000002008705E480078401C5D4908705C484B
:1051900000783C2807D15B480078401C59490870CA
:1051A00000205749087057480078182802D100207D
:1051B000544908705148007809281BDC052000F08C
:1051C000E7FB0020102101230246CDE900100A214F
:1051D000A220FFF790FD052000F0DAFB002010214F
:1051E0000123CDE90010454802780A21AA20FFF7E3
:1051F00082FD0DE0052000F0CBFB002010210223F2
:10520000CDE900103D4802780A21A220FFF773FD86
:105210003B48007809281DDC052000F0B9FB002080
:10522000102101230246CDE900100A218A20FFF750
:1052300062FD052000F0ACFB002010210123CDE928
:1052400000102F4802780A21922000E04AE0FFF780
:1052500052FD0DE0052000F09BFB002010210223F1
:10526000CDE90010264802780A218A20FFF743FD85
:105270002448007809281BDC052000F089FB002069
:10528000102101230246CDE900100A217220FFF708
:1052900032FD052000F07CFB002010210123CDE928
:1052A0000010184802780A217A20FFF724FD0DE04B
:1052B000052000F06DFB002010210223CDE9001035
:1052C000104802780A217220FFF715FD01210648D7
:1052D00000F01AF80121054800F029F901210448DD
:1052E00000F025F91CBD000000040040003801401A
:1052F0000044004020000020210000202400002065
:105300002300002022000020CA430282704721B1FE
:10531000028842F00102028004E002884FF6FE7328
:105320001A400280704730B5024600200023002456
:10533000158A05EA0103958905EA010413B10CB148
:10534000012000E0002030BD1AB183890B43838126
:1053500002E083898B43838170470000002202882A
:105360001D4B98420ED01D4B98420BD0B0F1804F90
:1053700008D01B4B984205D01A4B984202D01A4BCA
:10538000984204D14FF68F731A404B881A43174B3B
:10539000984207D0164B984204D04FF6FF431A406C
:1053A000CB881A4302808B8883850B8803850A4B40
:1053B00098420BD0094B984208D00E4B984205D02A
:1053C0000D4B984202D00D4B984201D10B7A0386C7
:1053D0000123838270470000002C0140003401400B
:1053E0000004004000080040000C00400010004095
:1053F00000140040004001400044014000480140CA
:1054000010B540F22551124800F0AAF801281ED12B
:105410000F4800F061F9C4B2BB2C03D00D480078EE
:10542000002814DD0B4801780078401C094A1070F0
:105430000948445410460078062808D10648807868
:10544000012804D10549088000201146087010BDCC
:105450000038014006000020100000200800002055
:1054600010B540F22551114800F07AF801281BD1FF
:105470000E4800F031F9C4B2FF2C03D00C4800787C
:10548000002811DD0A4801780078401C084A107095
:105490000848445410460078092805D101200649DF
:1054A000088000201146087010BD00000044004034
:1054B00000000020500000200200002010B5002451
:1054C00040F22551114800F04BF801281DD10F483A
:1054D00000F002F9C4B27B2C03D00D4800780028FC
:1054E00013DD0B4801780078401C094A1070094808
:1054F00044547D2C03D0104600784B2805D1012060
:105500000549088000200249087010BD004800408D
:10551000010000205A0000200400002001F4007265
:10552000B2F5007F00D100BFCA430280704721B1AD
:10553000828942F40052828104E082894DF6FF7331
:105540001A408281704702460020B1F5007F00D1E9
:1055500000BF13880B4201D0012000E000207047FB
:1055600070B502460024002300250020A1F5106636
:105570006A3E00D100BFC1F3421501F01F030126AE
:1055800006FA03F3012D02D19689334006E0022D7D
:1055900002D1168A334001E0968A33400C1201266C
:1055A00006FA04F41688344013B10CB1012000E06F
:1055B000002070BDF0B50346002400260025002021
:1055C000A1F510676A3F00D100BF1846C1F342142D
:1055D00001F01F06012707FA06F5012C01D10C3056
:1055E00004E0022C01D1103000E014301AB1076839
:1055F0002F43076002E00768AF430760F0BD00007B
:105600002DE9F04786B005460E460024A24600BFAD
:10561000A1460027B08900B100BF2F462C8A4CF666
:10562000FF700440F08804432C82AC894EF6F310DE
:105630000440B08831890843718908430443AC8130
:10564000AC8A4FF6FF400440B0890443AC8201A805
:10565000FFF766FC1F48874202D1DDF810A001E089
:10566000DDF80CA0A88910F4004F08D00AEBCA009E
:1056700000EB0A1031684900B0FBF1F807E00AEBD3
:10568000CA0000EB0A1031688900B0FBF1F8642011
:10569000B8FBF0F004012009642101FB1089A889FE
:1056A00010F4004F08D0322000EBC900B0FBF1F03D
:1056B00000F00700044308E0322000EB09106421E9
:1056C000B0FBF1F000F00F0004432C8106B0BDE800
:1056D000F08700000038014001468888C0F30800C8
:1056E000704730B504460D46C5F30800A08000BFE2
:1056F00080212046FFF727FF0028F9D030BD30B5C4
:1057000005460C4604E021782846FFF7EAFF641CB2
:1057100020780028F7D130BD00BFFEE702E008C8BE
:10572000121F08C1002AFAD170477047002001E01B
:1057300001C1121F002AFBD1704700007CB500BFD9
:1057400032480579C67846EA05244FF47A7094FB0E
:10575000F0F0642148434FF47A7194FBF1F201FBBD
:105760001241642291FBF2F101EB810100EB410057
:10577000114694FBF1F201FB12410A2291FBF2F176
:105780000844234908700A2094FBF0F100FB114003
:10579000204908704FF47A7094FBF0F030301E49C5
:1057A00008704FF47A7094FBF0F100FB1140642113
:1057B00090FBF1F0303018494870642094FBF0F110
:1057C00000FB11400A2190FBF1F030301249887043
:1057D0002E20C8700A2094FBF0F100FB11403030FD
:1057E0000D49087100204871032000F0D1F80A48E3
:1057F00010210B462822CDE9001092219720FFF7B7
:1058000047FA032000F0C4F87CBD0000100000201F
:105810004A0000204B0000203F0000207CB500BF64
:1058200000BF00BF2348C578067905EB85008000DE
:105830006421484306EB860100EB81041E48057095
:105840001E4806704FF47A70B4FBF0F030301C49FB
:1058500008704FF47A70B4FBF0F100FB1140642142
:10586000B0FBF1F03030164948702E20887064206B
:10587000B4FBF0F100FB11400A21B0FBF1F0303035
:105880000F49C8700A20B4FBF0F100FB1140303022
:105890000B49087100204871052000F079F808488C
:1058A00010210B462822CDE900107E219720FFF71A
:1058B000EFF97CBD50000020480000204900002086
:1058C0003900002000B587B0002201212D48FFF7E4
:1058D0003BFD05A906A8FAF724FE01221146294836
:1058E000FFF732FD9DF818000A2190FBF1F03030EF
:1058F000C0B28DF810009DF8180090FBF1F201FB8A
:1059000012003030C0B28DF8110000208DF8120066
:10591000052000F03DF804A810210B460A46CDE909
:1059200000107E213320FFF7B3F99DF814000A21FF
:1059300090FBF1F03030C0B28DF80C009DF81400EF
:1059400090FBF1F201FB12003030C0B28DF80D0077
:1059500000208DF80E00052000F01AF803A8102191
:105960000B460A46CDE9001092213320FFF790F94B
:105970009DF81800044908709DF814000349087048
:1059800007B000BD00040040460000204700002092
:10599000014642F228324A434FF0E0235A61012285
:1059A0001A6100229A6100BF4FF0E022106910F0E6
:1059B000010F02D010F4803FF6D000224FF0E02318
:1059C0001A619A617047014601EBC1024FF0E02372
:1059D0005A6101221A6100229A6100BF4FF0E02251
:1059E000106910F0010F02D010F4803FF6D00022B1
:1059F0004FF0E0231A619A617047000010B5002152
:105A00000348FFF794FD00210248FFF790FD10BD09
:105A1000003801400044004010B501210348FFF761
:105A200086FD01210248FFF782FD10BD00380140CC
:105A3000004400402DE9FC4106460F4614464FF055
:105A40000808254604EB08002978CDE90010A8884D
:105A50003844401E83B268883044401E82B23946C2
:105A6000304600F011F8BDE8FC8110B502462AB1BD
:105A700011F8014B20020B78184304E011F8010BD8
:105A80000B7840EA032010BD2DE9F84F8046894687
:105A900015461E46DDE90A4A4FF0000B14F0030FCD
:105AA00041D1A01106D0012812D002281ED003280F
:105AB00038D129E00020FEF7B5FD33462A46494695
:105AC0004046FEF7F9FF49464046FEF721FF29E030
:105AD0000120FEF7A7FD33462A4649464046FEF719
